:100000000C945A010C948B010C948B010C948B0171
:100010000C948B010C948B010C948B010C948B0130
:100020000C948B010C948B010C948B010C948B0120
:100030000C948B010C948B010C948B010C948B0110
:100040000C948B010C948B010C948B010C948B0100
:100050000C948B010C948B010C948B010C94320743
:100060000C948B010C9406080C94DC070C948B0107
:100070000C948B010C948B010C948B010C948B01D0
:100080000C948B010C948B010C948B010C948B01C0
:100090000C94A6070C947C070C948B010C948B0198
:1000A0000C948B010C948B010C948B010C948B01A0
:1000B0000C948B010C948B010C948B010C948B0190
:1000C0000C948B010C948B010C948B010C948B0180
:1000D0000C948B010C948B010C948B010C948B0170
:1000E0000C948B010C9405020C94ED010C94F70117
:1000F0000C9416030C9413020C9420030C94D80156
:100100000C94AD0E0C9434030C940B040C9412025A
:100110000C94DE030C94D2010C940E030C9409028F
:100120000C9417020C9461030C940D020C94DB02E6
:100130000C943C080C942A030C94E0010C944303A7
:100140000C941A040C947E040C94E7010C9475032F
:100150000C944D030C94DC010C94FF010C94F202FE
:100160000C94E4010C94FB010C943C040C94F101FC
:100170000C9406030C942E040C94CB040C94E8020B
:100180000C9457030C946B030C94FC020C94E30244
:1001900000002100240027002A002D003000330039
:1001A00001010000040107010A01000022002500EE
:1001B00028002B002E003100340002010000050150
:1001C00008010B01000020002300260029002C005C
:1001D0002F0032000001000003010601090105059E
:1001E0000505070508080808020202020A0A0808AD
:1001F00004040404010101010101010103030303DB
:1002000003030303040707070C0C0C0C0C0C0C0C69
:100210000202020206060606060606060B0B0B0B7A
:100220000B0B0B0B0102102020080810204010209F
:1002300040800201020108040201010204081020AA
:1002400040808040201008040201800402018040A8
:100250002010080402010804020101020408102011
:100260004080010204081020408000000A0B0209AF
:100270000C0D0E0807030401000000000000000040
:10028000000000000000000000000000000000006E
:10029000000000000000121110000000000000002B
:1002A000000000000000000000000000000000004E
:1002B0003C08AD0E11241FBECFEFD1E2DEBFCDBF93
:1002C00000E00CBF12E0A0E0B2E0ECE9F6E200E0F2
:1002D0000BBF02C007900D92A238B107D9F724E0F6
:1002E000A2E8B2E001C01D92AB31B207E1F711E024
:1002F000C9E5D1E000E006C021970109802FFE0189
:100300000E94A810C835D10780E00807A9F70E940D
:10031000C6080C943C130C940000FC01A089B18920
:1003200082E08C93A485B5851C92A685B7858FEC59
:100330008C93108EA489B58986E08C93A289B389A9
:100340008C9180618C93A289B3898C9188608C9305
:10035000A289B3898C9180688C930288F389E02DFF
:1003600080818F7D808308958150823108F05AC04A
:10037000E82FF0E08827E054FE4F8F4F0C94A81030
:10038000E001E401D201D801DC011202E701ED0134
:10039000F101F701FB01FF010502090212020D0242
:1003A00013021702809180008F7780938000089558
:1003B000809180008F7DF9CF80918000877FF5CF7D
:1003C00084B58F7784BD089584B58F7DFBCF8091F0
:1003D000B0008F778093B00008958091B0008F7D3A
:1003E000F9CF809190008F7780939000089580914D
:1003F00090008F7DF9CF80919000877FF5CF80911D
:10040000A0008F778093A00008958091A0008F7D39
:10041000F9CF8091A000877FF5CF809120018F7761
:10042000809320010895809120018F7DF9CF8091E4
:100430002001877FF5CFCF93DF93282F30E0F9019C
:10044000E659FD4F8491F901EC5DFD4FD491F9011E
:10045000E252FE4FC491CC23A1F081110E94B4015D
:10046000EC2FF0E0EE0FFF1FEC53FE4FA591B4917F
:10047000EC91ED2381E090E009F480E0DF91CF91F1
:10048000089580E090E0FACF1F93CF93DF93282F59
:1004900030E0F901E659FD4F8491F901EC5DFD4F23
:1004A000D491F901E252FE4FC491CC23A9F0162F4A
:1004B00081110E94B401EC2FF0E0EE0FFF1FE65512
:1004C000FE4FA591B4918FB7F894EC91111108C02B
:1004D000D095DE23DC938FBFDF91CF911F910895DC
:1004E000DE2BF8CFCF93DF9390E0FC01EC5DFD4F66
:1004F000249182529E4FFC0184918823D1F090E098
:10050000880F991FFC01E057FE4FA591B491FC01A3
:10051000E655FE4FC591D491623071F49FB7F894BF
:100520003C91822F809583238C93E8812E2B288306
:100530009FBFDF91CF9108958FB7F894EC912E2B48
:100540002C938FBFF6CF1F93CF93DF93182FEB0120
:1005500061E00E947202209739F460E0812FDF9100
:10056000CF911F910C944402CF3FD10511F461E06B
:10057000F5CFE12FF0E0E659FD4FE491E150E23193
:1005800008F0B3C0F0E08827E753FD4F8F4F0C947D
:10059000A810DB02E302E802F202FC027503060384
:1005A0000E03160320032A03340343034D0375038C
:1005B000570361036B0384B5806884BDC7BDDF91B9
:1005C000CF911F91089584B5806284BDC8BDF7CFD7
:1005D00080918000806880938000D0938900C093D0
:1005E0008800EDCF80918000806280938000D0935E
:1005F0008B00C0938A00E3CF809180008860809355
:100600008000D0938D00C0938C00D9CF8091B00032
:1006100080688093B000C093B300D1CF8091B000C8
:1006200080628093B000C093B400C9CF80919000E5
:10063000806880939000D0939900C0939800BFCFBA
:1006400080919000806280939000D0939B00C09333
:100650009A00B5CF80919000886080939000D093ED
:100660009D00C0939C00ABCF8091A00080688093D8
:10067000A0008091A0008F7B8093A000D093A90060
:10068000C093A8009CCF8091A00080628093A000BE
:10069000D093AB00C093AA0092CF8091A000886055
:1006A0008093A000D093AD00C093AC0088CF809120
:1006B0002001806880932001D0932901C0932801F4
:1006C0007ECF80912001806280932001D0932B0106
:1006D000C0932A0174CF809120018860809320010B
:1006E000D0932D01C0932C016ACFC038D1050CF0F6
:1006F0003ECF33CF3FB7F8948091AB029091AC02DC
:10070000A091AD02B091AE0226B5A89B05C02F3FC7
:1007100019F00196A11DB11D3FBFBA2FA92F982F27
:100720008827BC01CD01620F711D811D911D42E022
:10073000660F771F881F991F4A95D1F708958F92EA
:100740009F92AF92BF92CF92DF92EF92FF926B0196
:100750007C010E947A034B015C01C114D104E104C5
:10076000F104B9F00E947A03681979098A099B0992
:10077000683E73408105910580F321E0C21AD108DB
:10078000E108F10888EE880E83E0981EA11CB11CD8
:10079000E4CFFF90EF90DF90CF90BF90AF909F900D
:1007A0008F9008952FB7F8946091A7027091A802D6
:1007B0008091A9029091AA022FBF0895AF92BF9293
:1007C000CF92DF92EF92FF920F931F93CF93DF931D
:1007D0006C017B018B01040F151FEB015E01AE184C
:1007E000BF08C017D10759F06991D601ED91FC916E
:1007F0000190F081E02DC6011995892B79F7C5018B
:10080000DF91CF911F910F91FF90EF90DF90CF90EC
:10081000BF90AF900895FC01538D448D252F30E09B
:10082000842F90E0821B930B541710F0CF960895FD
:1008300001970895FC01918D828D981761F0A28D2A
:10084000AE0FBF2FB11D5D968C91928D9F5F9F73F0
:10085000928F90E008958FEF9FEF0895FC01918DA6
:10086000828D981731F0828DE80FF11D858D90E013
:1008700008958FEF9FEF0895FC01918D228D892FB0
:1008800090E0805C9F4F821B91098F739927089598
:100890008FEA92E00E943C0421E0892B09F420E0D9
:1008A000822F08958CE493E00E943C0421E0892B80
:1008B00009F420E0822F0895FC01A48DA80FB92F20
:1008C000B11DA35ABF4F2C91848D90E001968F7378
:1008D0009927848FA689B7892C93A089B1898C9197
:1008E000837080648C93938D848D981306C00288E6
:1008F000F389E02D80818F7D80830895EF92FF92B0
:100900000F931F93CF93DF93EC0181E0888F9B8D32
:100910008C8D98131AC0E889F989808185FF15C0EC
:100920009FB7F894EE89FF896083E889F98980810F
:100930008370806480839FBF81E090E0DF91CF91DE
:100940001F910F91FF90EF900895F62E0B8D10E000
:100950000F5F1F4F0F731127E02E8C8D8E110CC06F
:100960000FB607FCFACFE889F989808185FFF5CFBA
:10097000CE010E945C04F1CFEB8DEC0FFD2FF11D39
:10098000E35AFF4FF0829FB7F8940B8FEA89FB89F7
:1009900080818062CFCFCF93DF93EC01888D882355
:1009A000B9F0AA89BB89E889F9898C9185FD03C0D2
:1009B000808186FD0DC00FB607FCF7CF8C9185FFB7
:1009C000F2CF808185FFEDCFCE010E945C04E9CF9C
:1009D000DF91CF91089580E090E0892B29F00E946B
:1009E000520481110E94000080E090E0892B29F0E0
:1009F0000E94480481110E94000080E090E0892B51
:100A000049F080E090E0892B29F00E9400008111DC
:100A10000E94000080E090E0892B49F080E090E0A7
:100A2000892B29F00E94000081110C940000089588
:100A300084309105E0F5FC01EE0FFF1FEA5FFD4FEA
:100A400060E080810E94440280918202811109C08D
:100A500068EB7BE080E090E00E949F0381E0809360
:100A6000820285E00E941B02892B09F1109282020A
:100A70008091A4029091A502892B19F481E08093C2
:100A8000980210929B021092A5021092A40261E0BB
:100A900087E10E94440261E089E10E94440261E032
:100AA0008BE10E94440261E08DE10C9444020895C0
:100AB00084E00E941B0221E0892B09F020E0822FB4
:100AC0000895CF92DF92EF92FF920F931F93CF93EF
:100AD000DF938C01D0E0C0E06B01770FEE08FF08D8
:100AE00060E081E20E944402C701B6010E949F03B8
:100AF00061E081E20E9444020230110521F4C70145
:100B0000B6010E949F0321960C171D0749F7DF913C
:100B1000CF911F910F91FF90EF90DF90CF900895AC
:100B200061E08AE00E94440261E086E00E944402A3
:100B300060E087E00E94440260E088E10E94440295
:100B400070E060E08DE00E94A30270E060E089E068
:100B50000C94A30242E050E068E272E08CE493E07F
:100B60000C94DE03CF93DF93FC01448155816081B7
:100B700071818CE493E00E94DE03EC010E94AA05DF
:100B80008C0F9D1FDF91CF910895FC012481358149
:100B9000232B39F421E0FB018081882349F020E0F8
:100BA00007C0808191810E942C1321E0892BB9F725
:100BB000822F0895AF92BF92CF92DF92EF92FF9271
:100BC0000F931F93CF93DF93DC01CD90DC901197AF
:100BD000C114D10439F01496CD91DC918C017601C9
:100BE000209761F4DF91CF911F910F91FF90EF90CB
:100BF000DF90CF90BF90AF90089575015701BFEF80
:100C0000AB1ABB0AF7018081082E000C990B0E94D9
:100C1000E30E892B91F72197CC0DDD1D8881082EDD
:100C2000000C990B0E94E30E892B29F0CE15DF05ED
:100C300010F02197F3CFAE014F5F5F4F4E195F0960
:100C4000D80115965C934E931497CE14DF0420F4CC
:100C5000B701C6010E942313D801ED91FC911197B1
:100C600014968D919C91E80FF91F1082BBCF0F93C2
:100C70001F93CF93DF93EC0188819981009759F0FE
:100C80002A813B812617370730F081E0DF91CF9131
:100C90001F910F9108958B016F5F7F4F0E94421249
:100CA000009759F0998388831B830A832C813D81A7
:100CB000232B59F7FC011082E8CF80E0E7CFEF92B9
:100CC000FF920F931F93CF93DF936115710541F44A
:100CD00080E0DF91CF911F910F91FF90EF900895E9
:100CE00041155105B1F07B01EC010C811D81040F10
:100CF000151FB8010E943706882351F328813981D6
:100D00008C819D81B701820F931F0E9435131D8333
:100D10000C8381E0DECFCF93DF93EC018881998152
:100D2000009711F00E94B911198218821D821C824D
:100D30001B821A82DF91CF910895CF93DF93EC014C
:100D400041E050E06DE372E00E945F06811103C054
:100D5000CE010E948B06CE01DF91CF910895CF93F3
:100D6000DF93EC01FB0144815581608171810E9418
:100D70005F06811103C0CE010E948B06CE01DF9178
:100D8000CF910895EF92FF920F931F93CF93DF932C
:100D9000EC017B018A01BA010E94370681110BC068
:100DA000CE010E948B06CE01DF91CF911F910F9152
:100DB000FF90EF9008951D830C83B701888199817E
:100DC0000E943513F0CFFB0101900020E9F7319725
:100DD000AF01461B570B0C94C2060F931F93CF9382
:100DE000DF93CDB7DEB761970FB6F894DEBF0FBEC5
:100DF000CDBF8C01CB01F8011182108213821282C7
:100E0000158214824AE0BE016F5F7F4F0E94C90EB7
:100E1000BE016F5F7F4FC8010E94E30661960FB667
:100E2000F894DEBF0FBECDBFDF91CF911F910F9120
:100E30000895FC011182108213821282158214829D
:100E4000FB0101900020E9F73197AF01461B570BDA
:100E50000C94C206FC0180819181009711F00C94E2
:100E6000B91108951F920F920FB60F9211242F936C
:100E70003F938F939F93AF93BF938091A7029091DD
:100E8000A802A091A902B091AA023091A60223E083
:100E9000230F2D3758F50196A11DB11D2093A602F1
:100EA0008093A7029093A802A093A902B093AA02EC
:100EB0008091AB029091AC02A091AD02B091AE02D4
:100EC0000196A11DB11D8093AB029093AC02A0933B
:100ED000AD02B093AE02BF91AF919F918F913F91C0
:100EE0002F910F900FBE0F901F90189526E8230F9B
:100EF0000296A11DB11DD2CF1F920F920FB60F9275
:100F000011240BB60F922F933F934F935F936F93E0
:100F10007F938F939F93AF93BF93EF93FF938FEA4A
:100F200092E00E945C04FF91EF91BF91AF919F917D
:100F30008F917F916F915F914F913F912F910F9082
:100F40000BBE0F900FBE0F901F9018951F920F921F
:100F50000FB60F9211240BB60F922F938F939F937E
:100F6000EF93FF93E091BF02F091C0028081E09186
:100F7000C502F091C60282FD1DC090818091C80219
:100F80008F5F8F732091C902821741F0E091C802F0
:100F9000F0E0E155FD4F958F8093C802FF91EF91EE
:100FA0009F918F912F910F900BBE0F900FBE0F90BE
:100FB0001F9018958081F2CF1F920F920FB60F925B
:100FC00011240BB60F922F933F934F935F936F9320
:100FD0007F938F939F93AF93BF93EF93FF938CE493
:100FE00093E00E945C04FF91EF91BF91AF919F91BC
:100FF0008F917F916F915F914F913F912F910F90C2
:101000000BBE0F900FBE0F901F9018951F920F925E
:101010000FB60F9211240BB60F922F938F939F93BD
:10102000EF93FF93E0915C03F0915D038081E09189
:101030006203F091630382FD1DC09081809165037E
:101040008F5F8F7320916603821741F0E0916503F3
:10105000F0E0E45BFC4F958F80936503FF91EF9187
:101060009F918F912F910F900BBE0F900FBE0F90FD
:101070001F9018958081F2CFEFEAF2E0138212827E
:1010800048EE53E060E070E04483558366837783E5
:101090008AE192E0918380832DEC30E035872487CC
:1010A0002CEC30E03787268728EC30E0318B208B22
:1010B00029EC30E0338B228B2AEC30E0358B248B0B
:1010C0002EEC30E0378B268B118E128E138E148E01
:1010D000ECE4F3E0138212824483558366837783C2
:1010E0009183808385EC90E09587848784EC90E001
:1010F0009787868780EC90E0918B808B81EC90E0E5
:10110000938B828B82EC90E0958B848B86EC90E0C5
:10111000978B868B118E128E138E148E6BE272E07B
:101120008FEF93E00E9419076FE272E085E094E090
:101130000E94190763E372E08BE094E00E941907B4
:1011400067E372E081E194E00E9419076AE272E0CD
:1011500089EF93E00E9419070E94D2036093F50380
:101160007093F6038093F7039093F8030E94D203E1
:101170000E94D2036AE272E08FEE93E00E941907A8
:101180006AE272E089EE93E00C941907CF93DF9343
:10119000CDB7DEB72C970FB6F894DEBF0FBECDBF2C
:1011A000789484B5826084BD84B5816084BD85B542
:1011B000826085BD85B5816085BD80916E0081604E
:1011C00080936E00109281008091810082608093F4
:1011D00081008091810081608093810080918000F6
:1011E0008160809380008091B10084608093B10021
:1011F0008091B00081608093B00080919100826006
:101200008093910080919100816080939100809102
:1012100090008160809390008091A1008260809313
:10122000A1008091A10081608093A1008091A00025
:1012300081608093A00080912101826080932101D0
:101240008091210181608093210180912001816042
:101250008093200180917A00846080937A0080914D
:101260007A00826080937A0080917A008160809316
:101270007A0080917A00806880937A001092C10091
:101280008CE493E00E948D018FEA92E00E948D0130
:1012900061E081E20E94720262E085E00E947202D7
:1012A00062E080E10E94720262E081E10E947202CB
:1012B00062E084E00E94720261E08FE10E947202AB
:1012C00061E081E20E94440261E08FE10E944402F9
:1012D00061E08DE00E94720261E08CE00E94720287
:1012E00061E088E10E94720261E08AE00E9472027D
:1012F00061E089E00E94720261E088E00E9472026F
:1013000061E087E00E94720261E086E00E94720262
:1013100061E08AE00E94440261E086E00E944402AB
:101320000E94900506E012E0EEE0CE2EE2E0DE2E16
:10133000F801F0800E5F1F4F61E08F2D0E94720256
:1013400061E08F2D0E944402C016D10689F78AE021
:1013500090E00E942310082F10E010939A0200934F
:1013600099026AE070E080E090E00E949F03013102
:10137000110578F010929A021092990260E08AE0CA
:1013800090E00E942B106AE070E080E090E00E9404
:101390009F0356E1C52E52E0D52E6CE9E62E62E0A1
:1013A000F62E7EE0272E72E0372EF101A190B1904B
:1013B0001F01C5010E942310082F10E0F7010193BF
:1013C00011937F016AE070E080E090E00E949F034B
:1013D0000530110570F0F70132971182108260E03C
:1013E000C5010E942B106AE070E080E090E00E944E
:1013F0009F03C214D304C9F66CED75E080E090E061
:101400000E949F0366E970E082E090E00E9461051F
:101410000E94D2030E94D203FF24F39440E5E42EFD
:1014200080E10E941B02892B09F06DC00E94D2034B
:1014300000918702109188022091890230918A02DE
:10144000601B710B820B930B653F71408105910509
:10145000E8F08091830290918402A0918502B0917E
:1014600086020196A11DB11D809383029093840290
:10147000A0938502B09386020E94D20360938702F4
:10148000709388028093890290938A0280918302EC
:1014900090918402A0918502B09186020497A105E3
:1014A000B10508F442C068EE73E081E090E00E946C
:1014B000610580E190E090939A028093990260E147
:1014C0008AE090E00E942B106AE070E080E090E0FB
:1014D0000E949F030EE012E064E0F8018191919177
:1014E0008F010E942B106AE070E080E090E00E9483
:1014F0009F030215130581F764E670E082E090E037
:101500000E94610512C01092830210928402109210
:101510008502109286020E94D20360938702709324
:1015200088028093890290938A028CE493E00E945F
:101530003C04181619060CF0A8C18CE493E00E9434
:101540001A04182F8A3241F46AE272E089EE93E0BD
:101550000E94E306F0928B0280918B02882359F05F
:1015600019831A8241E050E0BE016F5F7F4F89EE20
:1015700093E00E945F06133209F087C189EE93E081
:101580000E94DA050FEF13E02CE9A22E22E0B22E22
:10159000CC24C394D12C2091ED033091EE03F801BB
:1015A000848195812817390709F077C08091E90374
:1015B0009091EA0360817181009709F457C0611529
:1015C000710539F4232B09F45EC0FC01808190E0A1
:1015D00058C00E942C1355C043E050E06BE372E00A
:1015E0008CE493E00E94DE030E94AA0556C081E0CD
:1015F000DDC161E08FE10E944402F1C189EF93E017
:101600000E948B0641C2109296021092950248C227
:1016100082E090E0909396028093950241C28DE221
:1016200090E090938E0280938D026FC2029721F01A
:101630000E945805882341F06AE272E089EF93E046
:101640000E94E3060E9490050E94EB04E9CE0097F9
:1016500069F70E9458058111EBCF6AE272E089EFC9
:1016600093E00E94E3060E949005E2CF61157105A8
:1016700051F0232B41F0FB01808190E09195819501
:101680009109892B51F4F50180819181892B09F40D
:10169000A3CFD092A502C092A402FFEFCF1ADF0A17
:1016A0000A5F1F4F22E0A20EB11C45E0C416D10410
:1016B00009F071CF6FE372E089EE93E00E94C505F7
:1016C000882341F08091990290919A02892B11F020
:1016D000F0929B0264E472E089EE93E00E94C505FB
:1016E000882309F16091990270919A02CE010796C0
:1016F0000E94ED066AE472E0CE0101960E9419078D
:10170000BE01695F7F4FCE0101960E94AF060E9425
:101710009D060E94B205CE0101960E942A07CE01C5
:1017200007960E942A076CE472E089EE93E00E941B
:10173000C505882309F160919C0270919D02CE013C
:1017400007960E94ED066AE472E0CE0101960E94BF
:101750001907BE01695F7F4FCE0101960E94AF0657
:101760000E949D060E94B205CE0101960E942A07A2
:10177000CE0107960E942A0763E572E089EE93E0A6
:101780000E94C505882309F160919E0270919F0215
:10179000CE0107960E94ED066AE472E0CE01019642
:1017A0000E941907BE01695F7F4FCE0101960E941A
:1017B000AF060E949D060E94B205CE0101960E94CE
:1017C0002A07CE0107960E942A076AE572E089EE91
:1017D00093E00E94C505882309F16091A0027091F1
:1017E000A102CE0107960E94ED066AE472E0CE01E6
:1017F00001960E941907BE01695F7F4FCE010196D5
:101800000E94AF060E949D060E94B205CE0101967D
:101810000E942A07CE0107960E942A0761E672E01D
:1018200089EE93E00E94C505882309F16091A20228
:101830007091A302CE0107960E94ED066AE472E061
:10184000CE0101960E941907BE01695F7F4FCE014C
:1018500001960E94AF060E949D060E94B205CE012D
:1018600001960E942A07CE0107960E942A0764E685
:1018700070E081E090E00E9461056AE272E089EE2A
:1018800093E00E94E30610928B028091A402909153
:10189000A502009781F001970E941805E091A4022B
:1018A000F091A502EE0FFF1FE656FD4F808191815A
:1018B00001979183808381E10E941B02892B69F447
:1018C00062E370E080E090E00E949F0381E10E946B
:1018D0001B02892B11F4F0929B0200919902109146
:1018E0009A020115110509F455C080919B028823C5
:1018F000D1F1B80190E080E00E94010F20E030E0DB
:1019000040E85EE30E94620F2B013C01CC24C394AB
:10191000D12CB6010D2C000C880B990B0E94030FE3
:101920004B015C01AC019B01C301B2010E94FC0EA2
:10193000181694F0A3019201C501B4010E94B010E1
:1019400020E030E040E85FE30E94FC0E87FF04C027
:10195000C60101970E9418058FEFC81AD80A95E0B2
:10196000C916D104B1F680919802882399F010929B
:101970009802B8016150710970939A0260939902BC
:101980008AE090E00E942B106AE070E080E090E036
:101990000E949F03ECE9F2E081919191892B09F477
:1019A00026CE22E0E43AF207B9F780E020919902CE
:1019B00030919A02232B31F42091A4023091A50298
:1019C000232B19F0882309F414CE60E08FE10E94E4
:1019D000440210929B021092A5021092A4028FEA78
:1019E00092E00E943C04181619060CF05FC08FEAC2
:1019F00092E00E941A04182F8A3241F46AE272E0DF
:101A00008FEE93E00E94E306F0928C0280918C02AC
:101A1000882359F019831A8241E050E0BE016F5FBC
:101A20007F4F8FEE93E00E945F06133209F03EC0B5
:101A300010928C028FEE93E00E94DA0568E672E065
:101A40008FEE93E00E94C5058111DDCD6CE672E05A
:101A50008FEE93E00E94C5058111DACD81E090E020
:101A600090939602809395026091EF037091F0033A
:101A70006115710509F4C2CD4091F3035091F4034F
:101A800089EF93E00E94C206F09297020E94D2036F
:101A90006093F5037093F6038093F7039093F80334
:101AA0006AE272E08FEE93E00E94E30680917B0091
:101AB000877F80937B0043E440937C0080917A0091
:101AC000806480937A0080917A0086FDFCCF8091BB
:101AD000780020917900322F282F50E040E02F5FCE
:101AE000334041095109ADE2B0E00E94581021E0B5
:101AF0003CEF4FEF5FEF0E9439102E32310508F0B6
:101B00008ECD30938E0220938D0220918D023091E4
:101B10008E02E4E6E29FC001E39F900D112464E68B
:101B200070E00E9494108B01709392026093910276
:101B30007093900260938F020E94D2034090F5034D
:101B40005090F6036090F7037090F80364197509DC
:101B500086099709683271058105910570F08091B9
:101B6000970281110AC08091950290919602019787
:101B700021F4109296021092950280919502909114
:101B800096028130910509F062CD0E9458058111BD
:101B90004FCD6BE272E089EF93E00E94C505D12C36
:101BA000C12C882379F010929402F0929302F4E60B
:101BB000F09FC001F19F900D112464E670E00E9437
:101BC00094106B016FE272E089EF93E00E94C5050B
:101BD000882379F0F09294021092930224E6209FD9
:101BE000C001219F900D112464E670E00E949410C2
:101BF0006B0167E372E089EF93E00E94C5058823DB
:101C000029F01092940210929302680163E372E04B
:101C100089EF93E00E94C505882329F0F092940291
:101C2000F0929302680162E772E089EF93E00E940C
:101C3000C5055601882379F0109294021092930200
:101C4000E09EC001E19E900D112464E670E00E94C8
:101C500094105B01680166E772E089EF93E00E94EF
:101C6000C505882379F01092940210929302E09EA9
:101C7000C001E19E900D112464E670E00E94941072
:101C80006B0158016AE772E089EF93E00E94C50595
:101C9000882379F0F0929402F0929302E09EC001C2
:101CA000E19E900D112464E670E00E9494105B01A7
:101CB00068016EE772E089EF93E00E94C505882312
:101CC00079F0F0929402F0929302E09EC001E19EBE
:101CD000900D112464E670E00E9494106B0158018D
:101CE0001091940260E088E10E94440260E087E085
:101CF0000E94440260E08AE00E94440260E086E0C4
:101D00000E94440261E0111160E088E00E944402F8
:101D1000B601772789E00E94A3021091930260E048
:101D200088E10E94440260E087E00E94440260E093
:101D30008AE00E94440260E086E00E94440260E083
:101D4000111161E08CE00E944402B50177278DE01B
:101D50000E94A302109297026BCC89EE93E00E943E
:101D60002A078FEE93E00E942A0789EF93E00E94F2
:101D70002A0781E194E00E942A078BE094E00E9408
:101D80002A0785E094E00E942A078FEF93E00C94E5
:101D90002A07BB27FB015527AA27880F991FAA1FCF
:101DA000A41710F0A41B83955051B9F7A05DAA3376
:101DB00008F0A95DA193009779F7B111B193119241
:101DC000CB010C94EC0E91110C94CF0F803219F0D2
:101DD00089508550C8F70895DC01FC01672F719187
:101DE0007723E1F7329704C07C916D937083629101
:101DF000AE17BF07C8F308950E943E0F08F481E0B4
:101E00000895E89409C097FB3EF4909580957095ED
:101E100061957F4F8F4F9F4F9923A9F0F92F96E936
:101E2000BB279395F695879577956795B795F111AB
:101E3000F8CFFAF4BB0F11F460FF1BC06F5F7F4F48
:101E40008F4F9F4F16C0882311F096E911C077235A
:101E500021F09EE8872F762F05C0662371F096E863
:101E6000862F70E060E02AF09A95660F771F881F32
:101E7000DAF7880F9695879597F90895990F0008D6
:101E8000550FAA0BE0E8FEEF16161706E807F9074C
:101E9000C0F012161306E407F50798F0621B730BE7
:101EA000840B950B39F40A2661F0232B242B252B68
:101EB00021F408950A2609F4A140A6958FEF811D0B
:101EC000811D08950E94750F0C94E90F0E94DB0F8D
:101ED00038F00E94E20F20F0952311F00C94D20FFD
:101EE0000C94D80F11240C941D100E94FA0F70F35B
:101EF000959FC1F3950F50E0551F629FF001729FAF
:101F0000BB27F00DB11D639FAA27F00DB11DAA1FBD
:101F1000649F6627B00DA11D661F829F2227B00D0A
:101F2000A11D621F739FB00DA11D621F839FA00D95
:101F3000611D221F749F3327A00D611D231F849FE5
:101F4000600D211D822F762F6A2F11249F5750403C
:101F50009AF0F1F088234AF0EE0FFF1FBB1F661FB7
:101F6000771F881F91505040A9F79E3F510580F080
:101F70000C94D20F0C941D105F3FE4F3983ED4F301
:101F8000869577956795B795F795E7959F5FC1F724
:101F9000FE2B880F911D9695879597F9089599279F
:101FA0008827089597F99F6780E870E060E00895BA
:101FB0009FEF80EC089500240A9416161706180661
:101FC0000906089500240A9412161306140605063D
:101FD0000895092E0394000C11F4882352F0BB0FCE
:101FE00040F4BF2B11F460FF04C06F5F7F4F8F4F31
:101FF0009F4F089557FD9058440F551F59F05F3F6C
:1020000071F04795880F97FB991F61F09F3F79F01A
:1020100087950895121613061406551FF2CF46959C
:10202000F1DF08C0161617061806991FF1CF86951E
:102030007105610508940895E894BB276627772702
:10204000CB0197F90895F999FECF92BD81BDF89A19
:10205000992780B50895262FF999FECF1FBA92BD12
:1020600081BD20BD0FB6F894FA9AF99A0FBE019679
:102070000895052E97FB1EF400940E94501057FD02
:1020800007D00E94631007FC03D04EF40C9450104C
:1020900050954095309521953F4F4F4F5F4F089594
:1020A00090958095709561957F4F8F4F9F4F0895C4
:1020B0000E948510A59F900DB49F900DA49F800D48
:1020C000911D11240895A1E21A2EAA1BBB1BFD012C
:1020D0000DC0AA1FBB1FEE1FFF1FA217B307E40707
:1020E000F50720F0A21BB30BE40BF50B661F771F5F
:1020F000881F991F1A9469F760957095809590953F
:102100009B01AC01BD01CF010895A29FB001B39F17
:10211000C001A39F700D811D1124911DB29F700DF0
:10212000811D1124911D0895AA1BBB1B51E107C0FD
:10213000AA1FBB1FA617B70710F0A61BB70B881F57
:10214000991F5A95A9F780959095BC01CD010895E6
:10215000EE0FFF1F881F8BBF0790F691E02D19949B
:102160005058BB27AA270E94C8100C94E90F0E9460
:10217000DB0F38F00E94E20F20F039F49F3F19F492
:1021800026F40C94D80F0EF4E095E7FB0C94D20FD4
:10219000E92F0E94FA0F58F3BA17620773078407F2
:1021A000950720F079F4A6F50C941C100EF4E09538
:1021B0000B2EBA2FA02D0B01B90190010C01CA0101
:1021C000A0011124FF27591B99F0593F50F4503EAC
:1021D00068F11A16F040A22F232F342F4427585F9E
:1021E000F3CF469537952795A795F0405395C9F7B6
:1021F0007EF41F16BA0B620B730B840BBAF091506E
:10220000A1F0FF0FBB1F661F771F881FC2F70EC00C
:10221000BA0F621F731F841F48F4879577956795DF
:10222000B795F7959E3F08F0B0CF9395880F08F0CB
:102230009927EE0F9795879508950F931F93CF9346
:10224000DF938230910510F482E090E0E091190470
:10225000F0911A0430E020E0B0E0A0E0309799F46B
:102260002115310509F44AC0281B390B24303105EA
:10227000D8F58A819B816115710589F1FB019383F2
:102280008283FE0111C04081518102811381481770
:102290005907E0F04817590799F4109761F0129622
:1022A0000C93129713961C933296CF01DF91CF9126
:1022B0001F910F9108950093190410931A04F4CFFD
:1022C0002115310551F04217530738F0A901DB0100
:1022D0009A01BD01DF01F801C1CFEF01F9CF909361
:1022E0001A0480931904CDCFFE01E20FF31F8193EE
:1022F00091932250310939832883D7CF2091170435
:1023000030911804232B41F42091020230910302F2
:102310003093180420931704209100023091010299
:102320002115310541F42DB73EB74091040250917B
:102330000502241B350BE0911704F0911804E217F5
:10234000F307A0F42E1B3F0B2817390778F0AC01D8
:102350004E5F5F4F2417350748F04E0F5F1F5093B5
:10236000180440931704819391939FCFF0E0E0E02D
:102370009CCFCF93DF930097E9F0FC013297138253
:102380001282A0911904B0911A04ED0130E020E00E
:102390001097A1F420813181820F931F209117049F
:1023A000309118042817390709F061C0F093180418
:1023B000E0931704DF91CF910895EA01CE17DF076C
:1023C000E8F54A815B819E0141155105B1F7E901AC
:1023D000FB83EA8349915991C40FD51FEC17FD0780
:1023E00061F4808191810296840F951FE9019983A0
:1023F0008883828193819B838A83F0E0E0E0129658
:102400008D919C9113970097B9F52D913C9111975F
:10241000CD010296820F931F20911704309118046A
:102420002817390739F6309751F510921A0410928F
:102430001904B0931804A0931704BCCFD383C283AC
:1024400040815181840F951FC817D90761F44E5FF1
:102450005F4F88819981480F591F518340838A813A
:102460009B81938382832115310509F0B0CFF093CE
:102470001A04E09319049ECFFD01DC01C0CF138242
:102480001282D7CF4F925F926F927F928F929F92DC
:10249000AF92BF92CF92DF92EF92FF920F931F9372
:1024A000CF93DF938C01009799F4CB01DF91CF910B
:1024B0001F910F91FF90EF90DF90CF90BF90AF9062
:1024C0009F908F907F906F905F904F900C941D1114
:1024D000FC01E60FF71F9C0122503109E217F307B8
:1024E00008F4AEC0D901CD91DC911197C617D7077A
:1024F00020F1C530D10578F0CE01049786179707F3
:1025000050F0C61BD70B2297C193D1936D937C9348
:10251000CF010E94B911C801DF91CF911F910F9196
:10252000FF90EF90DF90CF90BF90AF909F908F90F3
:102530007F906F905F904F9008955B01AC1ABD0A39
:102540004C018C0E9D1EA0911904B0911A04512CBF
:10255000412CF12CE12C109731F5809117049091CA
:1025600018048815990509F05CC04616570608F04E
:1025700058C08091000290910102009741F48DB7FC
:102580009EB74091040250910502841B950BE817F9
:10259000F90708F055C0F0931804E0931704F90107
:1025A00071836083B8CF8D919C91119712966C9036
:1025B000129713967C901397A815B90559F56C01DD
:1025C00042E0C40ED11CCA14DB0420F1AC014A194C
:1025D0005B09DA011296159780F06282738251834B
:1025E0004083D9016D937C93E114F10471F0D7011C
:1025F0001396FC93EE9312978ECF22968C0F9D1F0D
:10260000F90191838083F301EFCFF0931A04E093F3
:10261000190481CF4816590608F42C017D01D30115
:102620009ACFCB010E941D117C01009749F0AE01A9
:10263000B8010E942313C8010E94B91187016BCF12
:1026400010E000E068CFFB01DC0102C001900D92B8
:1026500041505040D8F70895FB01DC018D91019065
:1026600080190110D9F3990B0895FB01DC01019049
:102670000D920020E1F7089511E0C9E5D1E000E0F6
:1026800006C0802FFE010E94A8102196011DCA35A8
:0C269000D10780E00807A9F7F894FFCFFD
:10269C0000001B048000170019001B001D000F0018
:1026AC00140019001E00000000007E04DE030B0461
:1026BC00CB043C041A042E040D0A002A3123002AF0
:1026CC003223002A3323002A3423002A3023002A01
:1026DC004F4B23002A47455423002A002A474554D0
:1026EC003123002A4745543223002A4745543323CB
:1026FC00002A4745543423002A3923002A42524BDE
:10270C0023002A3523002A3623002A3723002A38AF
:02271C00230098
:00000001FF
